{
  "contractName": "PihiLottery",
  "abi": [
    {
      "inputs": [],
      "stateMutability": "nonpayable",
      "type": "constructor"
    },
    {
      "inputs": [],
      "name": "admin",
      "outputs": [
        {
          "internalType": "address",
          "name": "",
          "type": "address"
        }
      ],
      "stateMutability": "view",
      "type": "function",
      "constant": true
    },
    {
      "inputs": [
        {
          "internalType": "uint256",
          "name": "",
          "type": "uint256"
        }
      ],
      "name": "players",
      "outputs": [
        {
          "internalType": "address payable",
          "name": "",
          "type": "address"
        }
      ],
      "stateMutability": "view",
      "type": "function",
      "constant": true
    },
    {
      "stateMutability": "payable",
      "type": "receive",
      "payable": true
    },
    {
      "inputs": [],
      "name": "balance",
      "outputs": [
        {
          "internalType": "uint256",
          "name": "",
          "type": "uint256"
        }
      ],
      "stateMutability": "view",
      "type": "function",
      "constant": true
    },
    {
      "inputs": [],
      "name": "play",
      "outputs": [],
      "stateMutability": "nonpayable",
      "type": "function"
    },
    {
      "inputs": [],
      "name": "pickRandom",
      "outputs": [
        {
          "internalType": "uint256",
          "name": "",
          "type": "uint256"
        }
      ],
      "stateMutability": "view",
      "type": "function",
      "constant": true
    }
  ],
  "bytecode": "0x608060405234801561001057600080fd5b5033600160006101000a81548173ffffffffffffffffffffffffffffffffffffffff021916908373ffffffffffffffffffffffffffffffffffffffff160217905550610a87806100616000396000f3fe60806040526004361061004e5760003560e01c806393e84cd914610175578063b69ef8a81461018c578063d0b28caa146101b7578063f71d96cb146101e2578063f851a4401461021f57610170565b366101705760003490506000811161009b576040517f08c379a00000000000000000000000000000000000000000000000000000000081526004016100929061054e565b60405180910390fd5b60006002826100aa91906105a7565b146100ea576040517f08c379a00000000000000000000000000000000000000000000000000000000081526004016100e19061064a565b60405180910390fd5b60005b8181101561016c576000339080600181540180825580915050600190039060005260206000200160009091909190916101000a81548173ffffffffffffffffffffffffffffffffffffffff021916908373ffffffffffffffffffffffffffffffffffffffff1602179055506002816101659190610699565b90506100ed565b5050005b600080fd5b34801561018157600080fd5b5061018a61024a565b005b34801561019857600080fd5b506101a16103a7565b6040516101ae91906106fe565b60405180910390f35b3480156101c357600080fd5b506101cc6103af565b6040516101d991906106fe565b60405180910390f35b3480156101ee57600080fd5b506102096004803603810190610204919061074a565b6103e5565b60405161021691906107b8565b60405180910390f35b34801561022b57600080fd5b50610234610424565b60405161024191906107f4565b60405180910390f35b6000808054905090506003811015610297576040517f08c379a000000000000000000000000000000000000000000000000000000000815260040161028e9061085b565b60405180910390fd5b600080805490506102a66103af565b6102b091906105a7565b905060008082815481106102c7576102c661087b565b5b9060005260206000200160009054906101000a900473ffffffffffffffffffffffffffffffffffffffff1690508073ffffffffffffffffffffffffffffffffffffffff166108fc6103166103a7565b9081150290604051600060405180830381858888f19350505050158015610341573d6000803e3d6000fd5b50600067ffffffffffffffff81111561035d5761035c6108aa565b5b60405190808252806020026020018201604052801561038b5781602001602082028036833780820191505090505b50600090805190602001906103a192919061044a565b50505050565b600047905090565b6000444260006040516020016103c793929190610a18565b6040516020818303038152906040528051906020012060001c905090565b600081815481106103f557600080fd5b906000526020600020016000915054906101000a900473ffffffffffffffffffffffffffffffffffffffff1681565b600160009054906101000a900473ffffffffffffffffffffffffffffffffffffffff1681565b8280548282559060005260206000209081019282156104c3579160200282015b828111156104c25782518260006101000a81548173ffffffffffffffffffffffffffffffffffffffff021916908373ffffffffffffffffffffffffffffffffffffffff1602179055509160200191906001019061046a565b5b5090506104d091906104d4565b5090565b5b808211156104ed5760008160009055506001016104d5565b5090565b600082825260208201905092915050565b7f506c656173652073656e6420736f6d6520657468657200000000000000000000600082015250565b60006105386016836104f1565b915061054382610502565b602082019050919050565b600060208201905081810360008301526105678161052b565b9050919050565b6000819050919050565b7f4e487b7100000000000000000000000000000000000000000000000000000000600052601260045260246000fd5b60006105b28261056e565b91506105bd8361056e565b9250826105cd576105cc610578565b5b828206905092915050565b7f596f75206e65656420746f2073656e64206576656e206e756d626572206f662060008201527f6574686572000000000000000000000000000000000000000000000000000000602082015250565b60006106346025836104f1565b915061063f826105d8565b604082019050919050565b6000602082019050818103600083015261066381610627565b9050919050565b7f4e487b7100000000000000000000000000000000000000000000000000000000600052601160045260246000fd5b60006106a48261056e565b91506106af8361056e565b9250827fffffffffffffffffffffffffffffffffffffffffffffffffffffffffffffffff038211156106e4576106e361066a565b5b828201905092915050565b6106f88161056e565b82525050565b600060208201905061071360008301846106ef565b92915050565b600080fd5b6107278161056e565b811461073257600080fd5b50565b6000813590506107448161071e565b92915050565b6000602082840312156107605761075f610719565b5b600061076e84828501610735565b91505092915050565b600073ffffffffffffffffffffffffffffffffffffffff82169050919050565b60006107a282610777565b9050919050565b6107b281610797565b82525050565b60006020820190506107cd60008301846107a9565b92915050565b60006107de82610777565b9050919050565b6107ee816107d3565b82525050565b600060208201905061080960008301846107e5565b92915050565b7f466577206d6f7265207469636b65747320746f20626520736f6c640000000000600082015250565b6000610845601b836104f1565b91506108508261080f565b602082019050919050565b6000602082019050818103600083015261087481610838565b9050919050565b7f4e487b7100000000000000000000000000000000000000000000000000000000600052603260045260246000fd5b7f4e487b7100000000000000000000000000000000000000000000000000000000600052604160045260246000fd5b6000819050919050565b6108f46108ef8261056e565b6108d9565b82525050565b600081549050919050565b600081905092915050565b60008190508160005260206000209050919050565b61092e81610797565b82525050565b60006109408383610925565b60208301905092915050565b60008160001c9050919050565b600073ffffffffffffffffffffffffffffffffffffffff82169050919050565b600061098c6109878361094c565b610959565b9050919050565b600061099f8254610979565b9050919050565b6000600182019050919050565b60006109be826108fa565b6109c88185610905565b93506109d383610910565b8060005b83811015610a0b576109e882610993565b6109f28882610934565b97506109fd836109a6565b9250506001810190506109d7565b5085935050505092915050565b6000610a2482866108e3565b602082019150610a3482856108e3565b602082019150610a4482846109b3565b915081905094935050505056fea26469706673582212203dd6de7160bef7b467c88a9d4e2d9a52543257dccc419d2f089a2e334a7f2fa564736f6c634300080a0033",
  "immutableReferences": {},
  "source": "// SPDX-License-Identifier: UNLICENSED\r\n\r\npragma solidity 0.8.10;\r\n\r\ncontract PihiLottery {\r\n    address payable[] public players;\r\n    address public admin;\r\n\r\n    constructor() {\r\n        admin = msg.sender;\r\n    }\r\n\r\n    // receive 2 ether from each player\r\n    receive() external payable {\r\n        uint256 eth = msg.value;\r\n        require(eth > 0 ether, \"Please send some ether\");\r\n        require(eth % 2 == 0 ether, \"You need to send even number of ether\");\r\n\r\n        for (uint256 index = 0; index < eth; index += 2) {\r\n            players.push(payable(msg.sender));\r\n        }\r\n    }\r\n\r\n    function balance() public view returns (uint256) {\r\n        return address(this).balance;\r\n    }\r\n\r\n    function play() public {\r\n        uint256 numberOfPlayers = players.length;\r\n        require(numberOfPlayers >= 3, \"Few more tickets to be sold\");\r\n        uint256 winnerLocation = pickRandom() % players.length;\r\n\r\n        address payable winner = players[winnerLocation];\r\n        winner.transfer(balance());\r\n\r\n        players = new address payable[](0);\r\n    }\r\n\r\n    function pickRandom() public view returns (uint256) {\r\n        return\r\n            uint256(\r\n                keccak256(\r\n                    abi.encodePacked(block.difficulty, block.timestamp, players)\r\n                )\r\n            );\r\n    }\r\n}\r\n",
  "sourcePath": "D:\\practice\\etherium\\pihi-lottery\\contracts\\PihiLottery.sol",
  "compiler": {
    "name": "solc",
    "version": "0.8.10+commit.fc410830.Emscripten.clang"
  },
  "schemaVersion": "3.4.4",
  "updatedAt": "2021-12-19T17:50:47.213Z",
  "networkType": "ethereum",
  "devdoc": {
    "kind": "dev",
    "methods": {},
    "version": 1
  },
  "userdoc": {
    "kind": "user",
    "methods": {},
    "version": 1
  }
}